:020000040800F2
:10000000F8070020A13E0008D5010008D90100082A
:10001000DD010008E1010008E50100080000000022
:10002000000000000000000000000000E9010008DE
:10003000ED01000800000000F1010008253E000865
:10004000BB3E0008BB3E0008BB3E0008BB3E0008AC
:10005000BB3E0008BB3E0008BB3E0008BB3E00089C
:10006000BB3E0008BB3E0008BB3E0008BB3E00088C
:10007000BB3E0008BB3E0008BB3E0008BB3E00087C
:10008000BB3E0008BB3E0008BB3E0008BB3E00086C
:10009000BB3E0008BB3E0008BB3E0008BB3E00085C
:1000A000BB3E0008BB3E0008BB3E0008BB3E00084C
:1000B000BB3E0008BB3E0008BB3E0008BB3E00083C
:1000C000BB3E0008BB3E0008BB3E0008BB3E00082C
:1000D000BB3E00082939000855390008BB3E00081E
:1000E000BB3E0008BB3E0008BB3E000800F002F823
:1000F00000F060F814A696E8000CB244B344DA4568
:1001000001D100F057F8BAE80F000FA696E83000CA
:10011000A5EB040504EB0607AAEB0704A7F101070A
:100120004FEA15154FEA3414A4F10104AC4201D38F
:1001300000F040F813F0010F18BFFB1A43F0010361
:1001400000F001F8DBE718471C7400003C74000065
:10015000103A24BF78C878C1FAD8520724BF30C8F3
:1001600030C144BF04680C60704700007047000055
:100170000023002400250026103A28BF78C1FBD8B0
:10018000520728BF30C148BF0B607047662906F090
:100190003D85642904F04E87002070471FB505F0A7
:1001A000EFFA04000020002106F03CF8E0601FBDDB
:1001B00010B510BD05F0E4FB1146FFF7EFFF03F0AB
:1001C0005DFC05F002FC03B4FFF7F2FF03BC03F093
:1001D00017FB0000704700BFFEE700BFFEE700BF4F
:1001E000FEE700BFFEE700BF704700BF704700BFDB
:1001F0007047000082B041F20400C4F2020050F8DF
:10020000041C002241F0010140F8041C0168CFF6F3
:10021000FF021140016050F8041C4FF6FF72CFF648
:10022000F662114040F8041C50F8041C21F48021AF
:1002300040F8041C016821F4FE0101604FF41F0125
:10024000416000210191009150F8041C41F480317B
:1002500040F8041C50F8041C01F40031009101998D
:1002600001310191009919B90199B1F5A06FF1D14E
:1002700050F8041C890354BF00210121009100990A
:10028000012936D142F20001C4F202010A6842F0AB
:1002900010020A600A6822F007020A600A6842F047
:1002A00002020A600168016001680160016841F4AE
:1002B00080610160016821F47C110160016841F4F2
:1002C000E811016050F8041C41F0807140F8041CF2
:1002D00050F8041C8901FBD5016821F0030101607D
:1002E000016841F002010160016801F00C01082978
:1002F000FAD14EF60850CEF200004FF000610160D6
:1003000002B0704741F20400C4F20200016801F03B
:100310000C01082941F20021C0F27A010FD10268D4
:100320000368C2F38342DB0302F1020202D50368D1
:100330009B0303D540F60011C0F23D01514340F24A
:100340000402C2F200021160006846F6D841C0F310
:100350000310C0F60001085C116821FA00F010607B
:100360007047000082B000F0A5FB00F097FA02F0A1
:10037000D7FE00F0F7FF0020002500F045FD40F219
:100380007A00C2F2000040F27C060580C2F200064C
:100390004EF65B7030801020022102F0DDFC044636
:1003A0001020002102F0E6FC01460FF280422046B8
:1003B0001023009502F046FC47F67C503080102058
:1003C000012102F0C9FC04461020012102F0D2FCF8
:1003D00001460FF2684220461023009502F032FCDD
:1003E0001020042102F0B8FC04461020022102F083
:1003F000C1FC01460FF2504220461023009502F046
:1004000021FC1020012102F0A7FC0446102003214A
:1004100002F0B0FC01460FF238422046102300954E
:1004200002F010FC1020092102F096FC0446102076
:10043000032102F09FFC01460FF21C4220461023CC
:10044000009502F0FFFB1020042102F085FC044619
:100450001020042102F08EFC01460FF204422046D7
:100460001023009502F0EEFB40F2601B40F2700892
:10047000002640F2BC090FF2F03A0525C2F2000B4B
:10048000C2F20008C4F27A46C2F2000916E000BFC8
:1004900000212046C4F2C82106F0ECFA06F0BAFAB0
:1004A00040F2880AC2F2000A044650460FF2D831E0
:1004B0003A462B46009404F081FD062510200121C8
:1004C00002F04AFC0446E9B2102002F053FC014657
:1004D0002046524610230027009702F0B3FB002469
:1004E0000025CCF22404C4F2240554E001200022AB
:1004F000234603F065F8B8F8000006F0A7FA314685
:1005000006F0B8FA4FF0665106F0B4FA06F082FA37
:10051000B8F8021040F2C002C2F2000210600846B1
:1005200006F094FA314606F0A5FA4FF0665106F04F
:10053000A1FA06F06FFA8246B8F8040040F2C8014A
:10054000C2F20001C1F800A006F080FA314606F0C0
:1005500091FA4FF0665106F08DFA06F05BFAB8F8A2
:10056000061040F2C402C2F200021060084606F013
:100570006DFA314606F07EFA4FF0665106F07AFACF
:1005800006F048FA40F2A101C2F200010978C9F868
:10059000000001296CD000F0B5F9042000F0E6F964
:1005A00040B19BF800000130C1B2012988BF002092
:1005B0008BF800009BF80000A0B101289BD140F20D
:1005C000C00040F2C401C2F20000C2F200010068A3
:1005D0000968421A652A0FDB00200022234602F038
:1005E000EFFF1FE0012000F0D7F970B100200022DA
:1005F0002B4602F0E5FF2BE0081A65280FDB0020F0
:1006000000222B4602F0DCFF0CE0032000F0C4F9CE
:10061000D0B100200022234602F0D2FF18E00020D3
:1006200002F024FF40F2C800C2F200000068D9F8CE
:100630000010421A652ABFF659AF081A652812DA67
:10064000012002F013FF56E7002002F00FFF00BF69
:10065000002000F0A1F900287FF448AF022000F04C
:100660009BF90028ECD0012000222B4641E700BF77
:1006700040F2A100C2F20000077040F27C0040F29C
:100680008805C2F2000047F67C51C2F200050180E5
:10069000284677A1524604F091FC1020042102F074
:1006A0005BFB04461020022102F064FB0146204659
:1006B0002A461023009702F0C5FA40F2C000C2F2A9
:1006C000000047F25F570268C0F600072846394627
:1006D0004FF0000A04F072FC1020042102F03CFBF1
:1006E00004461020032102F045FB014620462A461D
:1006F0001023CDF800A002F0A5FA40F2C400C2F227
:10070000000002682846394604F058FC10200C21ED
:1007100002F022FB04461020032102F02BFB0146CD
:1007200020462A461023CDF800A002F08BFAD9F813
:10073000002028463946002704F040FC10200721FD
:1007400002F00AFB04461020042102F013FB0146CC
:1007500020462A461023009702F074FA40F20C005B
:10076000C2F2000001789BF8000081421AD040F2EA
:100770000C01C2F20001087018B1012812D140A585
:1007800000E03DA51020082102F0E6FA0446102002
:10079000052102F0EFFA014620462A461023009771
:1007A00002F050FAB8F8080040F28201C2F20001EB
:1007B000088005F050FF43F233334FF03332C3F675
:1007C000637305F0D3FF05F043FD40F28401C2F2EC
:1007D0000001086006F0C8F849F69A1249F6991324
:1007E000C9F69912C4F20D0307460D4605F06EFDD9
:1007F00005F02EFD044640F20000C2F2000046F271
:1008000066630460384629464FF06632C4F2060338
:1008100006F0EAF800287FF43BAE40F27C00C2F21A
:1008200000004FF47841018032E600BFCBABD6E147
:10083000D7B7B9E2CFB5CDB300000000B9E2D5D546
:10084000B2CECAFD3A200000C9CF3A200000000015
:10085000D7F33A2000000000D3D23A200000000075
:10086000CFC23A2000000000C9E8D6C33A200000F9
:10087000C9CF3A2564202000CAD6B6AF20000000B8
:10088000D7D4B6AF20200000423A25332E31667609
:1008900020513A253032642525200000B0B546F6B7
:1008A000F8454FF0FF34C0F6000500BF2819407826
:1008B000482103F069F80134042CF7D1B0BD00BF22
:1008C000B0B546F6F84C48F23C0E40F2001200215A
:1008D000C0F6000CC0F2070EC4F221220123002052
:1008E0001CF80140E50245EA840404EA0E04A45819
:1008F00003FA01F5002C01F1010108BF2843052985
:10090000EED1B0BDB0B546F6F84C48F23C0E40F220
:1009100000130020C0F6000CC0F2070EC4F2212321
:10092000012100241CF80050EA0242EA850202EA92
:100930000E02D25801FA00F5002A00F1010008BFAA
:100940002C430528EED140F2A805C2F20005286824
:10095000844202D0082002F00DFF286840F2A40172
:100960006040C2F2000108602C60B0BD40F2A401FA
:100970000122C2F2000102FA00F040F2A802096866
:10098000C2F200021268014018BF0121104018BFD6
:1009900001200840704700BF40F2A4010122C2F2CA
:1009A000000102FA00F040F2A8020968C2F2000257
:1009B00012680140B1FA81F110404FEA511118BF9D
:1009C00001200840704700BF012240F2A40102FA52
:1009D00000F040F2A802C2F20001C2F2000209686F
:1009E0001268014000EA0200B0FA80F04FEA5010AD
:1009F00018BF01210840704740F2A40140F2A8024C
:100A0000C2F20001C2F2000209681268114321FA21
:100A100000F0012121EA0000704700BF40F2A4006D
:100A2000C2F200000068002818BF0120704700BF14
:100A300040F2A40CC2F2000C0121DCF8003001FAF3
:100A400000F043EA000140F2A803C2F200031A6872
:100A5000CCF8001010431860704700BF40F2A40C9F
:100A6000C2F2000C0121DCF8003001FA00F023EAA8
:100A7000000140F2A803C2F200031A68CCF800108B
:100A800010431860704700BF40F2A40CC2F2000C83
:100A90000121DCF8003001FA00F043EA000140F2E5
:100AA000A803C2F200031A68CCF8001022EA000082
:100AB00018607047F0B591B042F200444FF40170F5
:100AC0000121C4F2010403F085FC1F20ADF80400ED
:100AD0000026A4F5E05001A98DF8076003F028FA7C
:100AE0000120012103F06AFC0825C4F20205284612
:100AF00004F002F942F24C40C4F20100019040F2CD
:100B00007000C2F20000CDE90206802006904FF48A
:100B1000807007904FF480600890202009904FF477
:100B200000500527CDE90A0601A92846CDE904763B
:100B300004F068F92846012104F08EF9204603F0FC
:100B4000B9FE40F20110ADF834004FF46020CDE959
:100B50000E060CA920460C968DF8407003F0D0FECE
:100B60004FF4004003F0B6FB20460021012207238A
:100B700003F04CFF204601210222072303F046FF29
:100B8000204602210322072303F040FF20460321D1
:100B90000422072303F03AFF2046042105220723FD
:100BA00003F034FF2046012103F0E4FE204601213A
:100BB00003F0D8FE204603F0F1FE00BF204603F00C
:100BC000F3FE0028FAD1204603F0F2FE204603F09F
:100BD000F5FE0028FAD12046012103F0F3FE11B002
:100BE000F0BD000080B548F2A8120821C4F221220D
:100BF0004FF0000C4FF0010EC3B2DB090139536016
:100C00000B064FEA4000C2F800C0C2F800E0F3D182
:100C100080BD00BF80B548F2A811C4F221214FF079
:100C2000000C08234FF0010EC1F810C0C1F80CC031
:100C3000C2B2D209013B4A601A064FEA4000C1F82D
:100C400000C0C1F800E0F3D10120086180BD00BF01
:100C500080B548F2A811C4F221214FF0000C4FF0EA
:100C6000010E0822C1F810C0C1F80CE0C3B2DB09C4
:100C7000013A4B6013064FEA4000C1F800C0C1F8CA
:100C800000E0F3D10120086180BD00BF10B548F23B
:100C9000A812C4F221224FF0000C08234FF0010EDD
:100CA000C2F810C0C2F80CC0C4B2E409013B5460E1
:100CB0001C064FEA4000C2F800C0C2F800E0F3D1C1
:100CC0004FF0010C00230820C2F810C01361C2F8D5
:100CD0000CC000BFCCB2E4090138546004064FEAEE
:100CE00041011360C2F800C0F4D10120106110BDB1
:100CF00080B540F2AC01C2F2000148F2A810097AB6
:100D0000C4F221204FF0000C08234FF0010EC0F870
:100D100010C0C0F80CC000BFCAB2D209013B42608B
:100D20001A064FEA4101C0F800C0C0F800E0F3D154
:100D30000121016180BD00BF10B548F2A811C4F2C5
:100D400021214FF0000C4FF0010E020A0823C1F8D8
:100D500010C0C1F80CE000BFD4B2E409013B4C6004
:100D60001C064FEA4202C1F800C0C1F800E0F3D10E
:100D700008224FF0000C0123C4B2E409013A4C6090
:100D800014064FEA4000C1F800C00B60F4D1012006
:100D9000086110BD10B548F2A81402460B46C4F213
:100DA000212400F07FF840F27C00C2F200000088AD
:100DB0004FF0000C4FF0010E030A0821C4F810C0D8
:100DC000C4F80CE0DAB2D209013962600A064FEACF
:100DD0004303C4F800C0C4F800E0F3D108214FF089
:100DE000000C0123C2B2D209013962600A064FEA3F
:100DF0004000C4F800C02360F4D10120206110BD80
:100E000002460B4600F04EB82DE9F04381B040F2A7
:100E1000AC06C2F20006804630887188013801397C
:100E200082B28BB200200021002500F03BF8B6F81A
:100E300002C0BCF1000F32D048F2A8113288C4F2CF
:100E400021214FEA182901204FF0000E04E000BFD5
:100E50000EF1010EE64522D2002AF9D0002600BF8D
:100E600008274B460D61C860DCB2E409013F4C60C5
:100E70003C064FEA43030D600860F5D1082743465E
:100E8000DCB2E409013F4C603C064FEA43030D60CD
:100E90000860F5D1013696420861E1D3D8E701B088
:100EA000BDE8F0832DE9F04140F2AC0EC2F2000E35
:100EB00048F2A81C9EF80A40C4F2212C4FF000080A
:100EC00008260127CCF81080CCF80C80E5B2ED099B
:100ED000013ECCF8045035064FEA4404CCF80080BB
:100EE000CCF80070F2D14FF00108050A002608275F
:100EF000CCF81080CCF81060CCF80C80ECB2E4098F
:100F0000013FCCF804403C064FEA4505CCF80060B0
:100F1000CCF80080F2D10125CCF810509EF80E805C
:100F2000002640440827CCF81060CCF80C5000BFD5
:100F3000C4B2E409013FCCF804403C064FEA40004B
:100F4000CCF80060CCF80050F2D10120150A002640
:100F50000827CCF81000CCF81060CCF80C0000BFCB
:100F6000ECB2E409013FCCF804403C064FEA4505E9
:100F7000CCF80060CCF80000F2D1012042440024FB
:100F80000825CCF81000CCF81040CCF80C0000BFBD
:100F9000D6B2F609013DCCF804602E064FEA4202B3
:100FA000CCF80040CCF80000F2D10120CCF81000C1
:100FB0009EF80C2000240825CCF81040CCF80C40FA
:100FC000D6B2F609013DCCF804602E064FEA420283
:100FD000CCF80040CCF80000F2D101200A0A00242D
:100FE0000825CCF81000CCF81040CCF80C0000BF5D
:100FF000D6B2F609013DCCF804602E064FEA420253
:10100000CCF80040CCF80000F2D10122CCF810203E
:101010009EF80F00002401440825CCF81040CCF8BD
:101020000C2000BFCEB2F609013DCCF804602E06BC
:101030004FEA4101CCF80040CCF80020F2D1012168
:101040001A0A00240825CCF81010CCF81040CCF86F
:101050000C1000BFD6B2F609013DCCF804602E0694
:101060004FEA4202CCF80040CCF80010F2D1012146
:10107000184400220823CCF81010CCF81020CCF82B
:101080000C1000BFC4B2E409013BCCF804401C06BC
:101090004FEA4000CCF80020CCF80010F2D101203B
:1010A000CCF810009EF8081000220823CCF810207D
:1010B000CCF80C20CFB2FF09013BCCF804701F061E
:1010C0004FEA4101CCF80020CCF80000F2D1012019
:1010D000CCF81000BDE8F081B0B546F6FD454FF004
:1010E000FF34C0F6000500BF28194078102102F037
:1010F0004BFC0134052CF7D1B0BD00BF10B548F250
:10110000B014C4F2212400202060642002F032FBDD
:10111000012132202160BDE8104002F02BBB00BF4E
:1011200040F2AC02C2F200022B2191812C21C0F2CC
:101130002A010328916088BF704780B548F2A81142
:10114000C4F22121DFE800F002A3376D4FF08010D8
:10115000106040F20230D0814FF0000C362208239C
:101160004FF0010EC1F810C0C1F80CC0D0B2C009D8
:10117000013B486018064FEA4202C1F800C0C1F8BE
:1011800000E0F3D14FF0010C4FF0000EC82308200F
:10119000C1F810C0C1F810E0C1F80CC0DAB2D20931
:1011A00001384A6002064FEA4303C1F800E0C1F883
:1011B00000C0F3D1D0E04FF0801010604FF4817088
:1011C000D0814FF0000C362208234FF0010EC1F8F9
:1011D00010C0C1F80CC000BFD0B2C009013B4860CC
:1011E00018064FEA4202C1F800C0C1F800E0F3D18E
:1011F0004FF0010C4FF0000E08230820C1F810C07A
:10120000C1F810E0C1F80CC0C2B2D209013B4A607B
:101210001A064FEA4000C1F800E0C1F800C0F3D15F
:101220009AE04FF08010106040F20120D0814FF022
:10123000000C362208234FF0010EC1F810C0C1F88F
:101240000CC000BFD0B2C009013B486018064FEA8D
:101250004202C1F800C0C1F800E0F3D14FF0010C28
:101260004FF0000E68230820C1F810C0C1F810E04C
:10127000C1F80CC0DAB2D20901384A6002064FEA5E
:101280004303C1F800E0C1F800C0F3D164E04FF0BF
:101290008010106040F20320D0814FF0000C362205
:1012A00008234FF0010EC1F810C0C1F80CC000BFF8
:1012B000D0B2C009013B486018064FEA4202C1F8AB
:1012C00000C0C1F800E0F3D14FF0010C4FF0000E68
:1012D000A8230820C1F810C0C1F810E0C1F80CC064
:1012E000DAB2D20901384A6002064FEA4303C1F874
:1012F00000E0C1F800C0F3D14FF0010C4FF0000E38
:1013000036230820C1F810C0C1F810E0C1F80CE085
:10131000DAB2D20901384A6002064FEA4303C1F843
:1013200000E0C1F800C0F3D14FF0010C4FF0000E07
:10133000A8230820C1F810C0C1F810E0C1F80CC003
:10134000DAB2D20901384A6002064FEA4303C1F813
:1013500000E0C1F800C0F3D101200861BDE8804081
:10136000704700BF70B546F6FD40C0F60000441E51
:10137000062500BF14F8010F102102F005FB013D06
:10138000F8D148F2A814C4F2212400256420A560F5
:1013900002F0F0F901263220A66002F0EBF91120EC
:1013A00008212561E56000BFC2B2D209013962603F
:1013B0000A064FEA400025602660F5D10125782015
:1013C000256102F0D7F90020B12108222061E060F8
:1013D000CBB2DB09013A636013064FEA410120609A
:1013E0002560F5D10120002108220123206121611F
:1013F000E06000BFDEB2F609013A666016064FEA09
:10140000430321602060F5D1012000212C22082314
:1014100020612161E06000BFD6B2F609013B666041
:101420001E064FEA420221602060F5D10120002112
:101430002D22082320612161E06000BFD6B2F609A9
:10144000013B66601E064FEA420221602060F5D132
:1014500001200021B222082320612161E16000BF48
:10146000D6B2F609013B66601E064FEA42022160D1
:101470002060F5D101200021082201232061216193
:10148000E06000BFDEB2F609013A666016064FEA78
:10149000430321602060F5D1012000212C22082384
:1014A00020612161E06000BFD6B2F609013B6660B1
:1014B0001E064FEA420221602060F5D10120002182
:1014C0002D22082320612161E06000BFD6B2F60919
:1014D000013B66601E064FEA420221602060F5D1A2
:1014E00001200021B322082320612161E16000BFB7
:1014F000D6B2F609013B66601E064FEA4202216041
:101500002060F5D101200021082201232061216102
:10151000E06000BFDEB2F609013A666016064FEAE7
:10152000430321602060F5D1012000212C220823F3
:1015300020612161E06000BFD6B2F609013B666020
:101540001E064FEA420221602060F5D101200021F1
:101550002D22082320612161E06000BFD6B2F60988
:10156000013B66601E064FEA420221602060F5D111
:10157000012000210822012320612161E06000BFD9
:10158000DEB2F609013A666016064FEA43032160AF
:101590002060F5D1012000212C2208232061216147
:1015A000E06000BFD6B2F609013B66601E064FEA56
:1015B000420221602060F5D1012000212D22082364
:1015C00020612161E06000BFD6B2F609013B666090
:1015D0001E064FEA420221602060F5D10120002161
:1015E000B422082320612161E16000BFD6B2F60970
:1015F000013B66601E064FEA420221602060F5D181
:10160000012000210722082320612161E06000BF42
:10161000D6B2F609013B66601E064FEA420221601F
:101620002060F5D101200021C02208232061216122
:10163000E16000BFD6B2F609013B66601E064FEAC4
:10164000420221602060F5D101200021A22208235E
:1016500020612161E06000BFD6B2F609013B6660FF
:101660001E064FEA420221602060F5D101200021D0
:101670000222082320612161E06000BFD6B2F60992
:10168000013B66601E064FEA420221602060F5D1F0
:10169000012000218422082320612161E06000BF35
:1016A000D6B2F609013B66601E064FEA420221608F
:1016B0002060F5D101200021C12208232061216191
:1016C000E16000BFD6B2F609013B66601E064FEA34
:1016D000420221602060F5D101200021C5220823AB
:1016E00020612161E06000BFD6B2F609013B66606F
:1016F0001E064FEA420221602060F5D10120002140
:10170000C222082320612161E16000BFD6B2F60940
:10171000013B66601E064FEA420221602060F5D15F
:10172000012000210A22082320612161E06000BF1E
:10173000D6B2F609013B66601E064FEA42022160FE
:101740002060F5D101200021082220612161E060A4
:10175000013A1306616021602060F9D10120002167
:10176000C322082320612161E16000BFD6B2F609DF
:10177000013B66601E064FEA420221602060F5D1FF
:10178000012000218A22082320612161E06000BF3E
:10179000D6B2F609013B66601E064FEA420221609E
:1017A0002060F5D1012000212A2208232061216137
:1017B000E06000BFD6B2F609013B66601E064FEA44
:1017C000420221602060F5D101200021C4220823BB
:1017D00020612161E16000BFD6B2F609013B66607D
:1017E0001E064FEA420221602060F5D1012000214F
:1017F0008A22082320612161E06000BFD6B2F60989
:10180000013B66601E064FEA420221602060F5D16E
:1018100001200021EE22082320612161E06000BF49
:10182000D6B2F609013B66601E064FEA420221600D
:101830002060F5D101200021C5220823206121610B
:10184000E16000BFD6B2F609013B66601E064FEAB2
:10185000420221602060F5D1012000210E220823E0
:1018600020612161E06000BFD6B2F609013B6660ED
:101870001E064FEA420221602060F5D101200021BE
:101880003622082320612161E16000BFD6B2F6094B
:10189000013B66601E064FEA420221602060F5D1DE
:1018A00001200021C822082320612161E06000BFDF
:1018B000D6B2F609013B66601E064FEA420221607D
:1018C0002060F5D101200021E02208232061216160
:1018D000E16000BFD6B2F609013B66601E064FEA22
:1018E000420221602060F5D1012000210F2208234F
:1018F00020612161E06000BFD6B2F609013B66605D
:101900001E064FEA420221602060F5D1012000212D
:101910001A22082320612161E06000BFD6B2F609D7
:10192000013B66601E064FEA420221602060F5D14D
:10193000012000210F22082320612161E06000BF07
:10194000D6B2F609013B66601E064FEA42022160EC
:101950002060F5D101200021182208232061216197
:10196000E06000BFD6B2F609013B66601E064FEA92
:10197000420221602060F5D1012000212F2208239E
:1019800020612161E06000BFD6B2F609013B6660CC
:101990001E064FEA420221602060F5D1012000219D
:1019A0002822082320612161E06000BFD6B2F60939
:1019B000013B66601E064FEA420221602060F5D1BD
:1019C000012000212022082320612161E06000BF66
:1019D000D6B2F609013B66601E064FEA420221605C
:1019E0002060F5D1012000212222082320612161FD
:1019F000E06000BFD6B2F609013B66601E064FEA02
:101A0000420221602060F5D1012000211F2208231D
:101A100020612161E06000BFD6B2F609013B66603B
:101A20001E064FEA420221602060F5D1012000210C
:101A30001B22082320612161E06000BFD6B2F609B5
:101A4000013B66601E064FEA420221602060F5D12C
:101A5000012000212322082320612161E06000BFD2
:101A6000D6B2F609013B66601E064FEA42022160CB
:101A70002060F5D101200021372208232061216157
:101A8000E06000BFD6B2F609013B66601E064FEA71
:101A9000420221602060F5D101200021082220614E
:101AA0002161E060013A1306616021602060F9D194
:101AB000012000210722082320612161E06000BF8E
:101AC000D6B2F609013B66601E064FEA420221606B
:101AD0002060F5D10120002102220823206121612C
:101AE000E06000BFD6B2F609013B66601E064FEA11
:101AF000420221602060F5D101200021102208233C
:101B000020612161E06000BFD6B2F609013B66604A
:101B10001E064FEA420221602060F5D1012000211B
:101B2000E122082320612161E16000BFD6B2F609FD
:101B3000013B66601E064FEA420221602060F5D13B
:101B4000012000210F22082320612161E06000BFF5
:101B5000D6B2F609013B66601E064FEA42022160DA
:101B60002060F5D1012000211B2208232061216182
:101B7000E06000BFD6B2F609013B66601E064FEA80
:101B8000420221602060F5D1012000210F220823AC
:101B900020612161E06000BFD6B2F609013B6660BA
:101BA0001E064FEA420221602060F5D1012000218B
:101BB0001722082320612161E06000BFD6B2F60938
:101BC000013B66601E064FEA420221602060F5D1AB
:101BD000012000213322082320612161E06000BF41
:101BE000D6B2F609013B66601E064FEA420221604A
:101BF0002060F5D1012000212C22082320612161E1
:101C0000E06000BFD6B2F609013B66601E064FEAEF
:101C1000420221602060F5D1012000212922082301
:101C200020612161E06000BFD6B2F609013B666029
:101C30001E064FEA420221602060F5D101200021FA
:101C40002E22082320612161E06000BFD6B2F60990
:101C5000013B66601E064FEA420221602060F5D11A
:101C6000012000213022082320612161E06000BFB3
:101C7000D6B2F609013B66601E064FEA42022160B9
:101C80002060F5D10120002130220823206121614C
:101C9000E06000BFD6B2F609013B66601E064FEA5F
:101CA000420221602060F5D1012000213922082361
:101CB00020612161E06000BFD6B2F609013B666099
:101CC0001E064FEA420221602060F5D1012000216A
:101CD0003F22082320612161E06000BFD6B2F609EF
:101CE000013B66601E064FEA420221602060F5D18A
:101CF00001200021082220612161E060013A1306E1
:101D0000616021602060F9D10120002107220823B1
:101D100020612161E06000BFD6B2F609013B666038
:101D20001E064FEA420221602060F5D10120002109
:101D30000322082320612161E06000BFD6B2F609CA
:101D4000013B66601E064FEA420221602060F5D129
:101D5000012000211022082320612161E06000BFE2
:101D6000D6B2F609013B66601E064FEA42022160C8
:101D70002060F5D1012000212A2208232061216161
:101D8000E16000BFD6B2F609013B66601E064FEA6D
:101D9000420221602060F5D101200021082220614B
:101DA0002161E060013A1306616021602060F9D191
:101DB00001200021082220612161E060013A130620
:101DC000616021602060F9D101200021082220619A
:101DD0002161E060013A1306616021602060F9D161
:101DE000012000217F22082320612161E06000BFE3
:101DF000D6B2F609013B66601E064FEA4202216038
:101E00002060F5D1012000212B22082320612161CF
:101E1000E16000BFD6B2F609013B66601E064FEADC
:101E2000420221602060F5D10120002108222061BA
:101E30002161E060013A1306616021602060F9D100
:101E400001200021082220612161E060013A13068F
:101E5000616021602060F9D1012000210822206109
:101E60002161E060013A1306616021602060F9D1D0
:101E7000012000219F22082320612161E06000BF32
:101E8000D6B2F609013B66601E064FEA42022160A7
:101E90002060F5D101200021F0220823206121617A
:101EA000E16000BFD6B2F609013B66601E064FEA4C
:101EB000420221602060F5D1012000210822012387
:101EC00020612161E06000BFDEB2F609013A666080
:101ED00016064FEA430321602060F5D1012000215E
:101EE000F622082320612161E16000BFD6B2F60925
:101EF000013B66601E064FEA420221602060F5D178
:101F000001200021082220612161E060013A1306CE
:101F1000616021602060F9D1012000213A2208236C
:101F200020612161E16000BFD6B2F609013B666025
:101F30001E064FEA420221602060F5D101200021F7
:101F40000522082320612161E06000BFD6B2F609B6
:101F5000013B66601E064FEA420221602060F5D117
:101F6000012000212922082320612161E16000BFB6
:101F7000D6B2F609013B66601E064FEA42022160B6
:101F80002060F5D1012501202561FFF7C9F86561C1
:101F900070BD000010B51446FEF732FF2046BDE8C4
:101FA0001040FEF7C9BE00BF70B50C460546FEF7EF
:101FB000F1FE681C86B230462146FEF7EBFE601C3F
:101FC00084B228462146FEF7E5FE30462146BDE8AC
:101FD0007040FEF7DFBE00BF2DE9F04381B006463A
:101FE000581A80B2089C471C304615461FFA87F8DD
:101FF000FEF758FFB84510D040F2AC00C2F2000026
:1020000001884088013901388AB283B2002000215A
:1020100001B0BDE8F043FEF745BFA81B0130002525
:102020004FEA004987B203E00135A8B24045E3D248
:10203000B9F1000FF8D000262046FEF77DFE0136EC
:10204000B0B2B842F8D3EFE72DE9F04F83B00546C0
:102050000C46111AB2EB050B18BF4FF0FF3B0029DD
:102060000E4648BF4E420129A3EB04004FF0010782
:10207000A8BFBB46191B18BF4FF0FF3100280290C4
:1020800044BF434202930128B8BF0F4602984FF065
:10209000000A864288BF3046019001304FF00009A7
:1020A0004FF00008009000BFA8B2A1B2FEF772FE88
:1020B0000299019B09EB06005144B0EB0309D4BF20
:1020C00081465D44B1EB030AD4BF8A463C4408F123
:1020D000010800991FFA88F08142E5D203B0BDE8FB
:1020E000F08F00BF2DE9F04F87B00746101AB2EB12
:1020F0000708824605938B46049218BF4FF0FF38BD
:10210000002848BFC0F1000A0AF1010100263C4640
:1021100000250128A8BF4FF0010800BFA0B28946E2
:102120005946FEF737FE0135002EA8B249460CBFCE
:10213000564444448145F1D20599CDE902A8A1EB6A
:102140000B00B1EB0B0618BF4FF0FF36002880469E
:1021500048BFC0F10008012808F101004FF0000A53
:102160005C464FF00005A8BF01260690A1B2384694
:10217000FEF710FEBAF1000F0CBFC2443444013523
:102180000699A8B28142F1D2CDE90086DDF814A00B
:10219000DDE9028600240025B8B25146FEF7FAFDBB
:1021A0000135002CA8B20CBF444437448145F3D21A
:1021B000DDF81080DDE90079069E0024002500BFCF
:1021C0001FFA8BF14046FEF7E5FD0135002CA8B261
:1021D0000CBF3C44CB448642F2D207B0BDE8F08F3E
:1021E0002DE9F04381B0064640F27C00C2F20000C7
:1021F0000488581A80B2471C304615461FFA87F8E3
:10220000FEF750FEB84510D040F2AC00C2F200001C
:1022100001884088013901388AB283B20020002148
:1022200001B0BDE8F043FEF73DBEA81B013000251C
:102230004FEA004987B203E00135A8B24045E3D236
:10224000B9F1000FF8D000262046FEF775FD0136E3
:10225000B0B2B842F8D3EFE72DE9F04F81B089462C
:1022600083461044194486B28FB20A9C30463946E0
:102270009A469046FEF7C4FD2046FEF75DFDABEBA7
:10228000080085B228463946FEF7BAFD2046FEF71B
:1022900053FDA9EB0A0087B230463946FEF7B0FD80
:1022A0002046FEF749FD28463946FEF7A9FD20469F
:1022B000FEF742FD0AEB0B0008EB090185B28EB276
:1022C00028463146FEF79CFD2046FEF735FDABEB78
:1022D0000A0087B238463146FEF792FD2046FEF7E7
:1022E0002BFDA9EB080086B228463146FEF788FD93
:1022F0002046FEF721FD38463146FEF781FD204697
:1023000001B0BDE8F04FFEF717BD00BF2DE9F04F5B
:1023100083B00646032015468846A0EB4209CBB39E
:10232000002D5FD440F27C0B00274FF0FF3AC2F241
:10233000000B0CE0019D781B01EB800000F10A0905
:10234000013DAF4207F101070AF1010A4ADA3846B6
:10235000CDF80890BD420195C8BF28466FEA000934
:10236000544600BFBBF800500134304641463A465F
:1023700023460095FFF770FF09EB04000130F1D10F
:102380000299B1F1FF3FD5DC01EB8700019D00F11F
:102390000609D6E7002D25D440F27C0B00244FF02F
:1023A000FF3A0627C2F2000B0BE000BF601B09EBEF
:1023B000800000F10A09013D0134AA4507F1040734
:1023C00010DABBF800C00AF1010A30464146524615
:1023D0002B46CDF800C0FFF73FFFB9F1FF3FE5DC2A
:1023E000B944E9E703B0BDE8F08F00BF2DE9F04F35
:1023F00087B0141AB2EB0009009218BF4FF0FF39F2
:10240000002C2646884648BF6642012CA3EB0105F6
:102410004FF00107A8BFB946B3EB0804019318BFFA
:102420004FF0FF34002D069544BF6B420693012DFB
:10243000B8BF2746069B82469E4288BF3346059317
:102440000133002500244FF0000B0493CDE902A8CE
:102450001FFA8AF01FFA88F1FEF79CFC0699059B8B
:10246000A0192944C41AD4BF0446CA44CD1AD4BF03
:102470000D46B8440BF1010B04991FFA8BF0814211
:10248000E6D2109B009F119DD91BB3EB070A019E5A
:1024900018BF4FF0FF3A00298B4648BFC1F1000B2F
:1024A0000129A5EB06004FF00109A8BFCA46A91BE8
:1024B00018BF4FF0FF310028069044BF45420695F3
:1024C0000128B8BF894606980025834588BF58462D
:1024D0000590013000244FF000080490B8B2B1B26A
:1024E000FEF758FC069904EB0B002944059D08F102
:1024F0000108441BD4BF044657444D1BD4BF0D46AE
:102500004E4404991FFA88F08142E7D2DDF840A0DA
:10251000029EDDF84490A6EB0A01B6EB0A06039D85
:1025200018BF4FF0FF3600290F4648BF4F42012920
:10253000A5EB09004FF0010BA8BF5E46B5EB090102
:1025400018BF4FF0FF310028069044BF4542069562
:102550000128B8BF8B4606980025874288BF3846B9
:102560000590013000244FF0000804901FFA8AF013
:102570001FFA89F1FEF70EFC0699E0192944059D22
:1025800008F10108441BD4BF0446B2444D1BD4BF1C
:102590000D46D94404991FFA88F08142E6D207B06B
:1025A000BDE8F08F2DE9F04F8BB0159F994206469C
:1025B00002D91C46089203E008960C4616461946B6
:1025C000149BB94228D918463A4694422AD8089D05
:1025D000A04608901446884528D0701B01960A90A2
:1025E000A1EB080009900846A1420791039418BF87
:1025F000601E80B240F2AC098045C2F2000906902C
:10260000CDF808804AD907991FFA88F0884240F22D
:1026100093800BB0BDE8F08F30460A461E4639461F
:102620009442D4D9054690468845D6D10899284683
:10263000A94288BF0846024638BF0D46864288BF79
:102640003246AE423CBF3546024640F27C00C2F202
:1026500000000488501B80B2471C28464146434670
:10266000BEB2FEF71FFCBE4207D100252046FEF792
:1026700063FB0135A8B2B042F8D340F2AC00C2F21D
:10268000000001884088013901388AB283B20020F5
:1026900000210BB0BDE8F04FFEF704BC0898002401
:1026A000401B0590DDE902804FF0000BA0EB080015
:1026B000049016E00598B9F8021083440A9801398D
:1026C0000444B9F800008BB2013882B20020002126
:1026D000FEF7E8FB08F1010806991FFA88F0884226
:1026E00091D8049809999BFBF0F094FBF1F12844F0
:1026F00083B2681882B240F27C011046C2F2000137
:10270000934238BF184688BF1A460E88111A89B2FC
:102710004F1C1FFA88F10B461FFA87FAFEF7C2FB1F
:10272000BA45C7D1002700BF3046FEF705FB013789
:10273000B8B25045F8D3BDE7089A019B9F1A039B96
:10274000C91A059102990A9A411AC01A01FB02FBA3
:1027500000FB07F4069717E00698B9F80210044446
:102760000A9801398344B9F800008BB2013882B26B
:1027700000200021FEF796FB08F1010807991FFAD7
:1027800088F088423FF645AF0598089994FBF0F031
:102790000844099983B29BFBF1F1681882B240F2B8
:1027A0007C011046C2F20001934238BF184688BF30
:1027B0001A460E88111A89B24F1C1FFA88F10B466F
:1027C0001FFA87FAFEF76EFBBA45C5D1002700BF96
:1027D0003046FEF7B1FA0137B8B25045F8D3BBE73F
:1027E000B0B5144600F1270201F1270392B29BB263
:1027F000FEF758FB023C4FF4C86500BF34F8020FE7
:10280000FEF79AFA013DF9D140F2AC00C2F20000A5
:1028100001884088013901388AB283B20020002142
:10282000BDE8B040FEF73EBB2DE9F04782B09846C8
:1028300013780D46A3F12001C9B25E292BD840F2CE
:10284000AC09C2F200090646B9F80000B04222D92C
:10285000B9F80200A8421ED94FEA5804571E4FF09B
:10286000000A00BFB0B2DAB229464346CDF800A054
:1028700000F014F8BB78A3F12000C0B25E280AD89B
:102880002644B9F80000B1B2884204D9B9F8020070
:102890000137A842E6D802B0BDE8F0872DE9F0473D
:1028A00082B040F2AC07C2F200071C463B880546E6
:1028B000A3EB5400A84204DB78880E46001B884234
:1028C00002DA02B0BDE8F0874FEA540805EB0800D1
:1028D000311901380139DDF82890A2F1200A82B2BD
:1028E0008BB228463146FEF7DDFA220904F0FE01DC
:1028F000012314F00E0F18BF03EB1412514346F6D8
:1029000003525FFA8AF0C9B2C0F6000201FB002C44
:102910002846314642462346CDE900C900F0C2F8B8
:10292000388879880138013982B28BB200200021C1
:1029300002B0BDE8F047FEF7B5BA00BF002904BFFA
:10294000012070470246012001390B0602FB00F00E
:10295000FAD170472DE9F04F83B0002B02924DD091
:1029600007460C981C468A46591E45084FF0000839
:102970004FF000094FF0000B019113E04FF00109F7
:1029800008FB057140F0300288B2D2B251460C9B70
:1029900000260096FFF782FF08F10108A0450BF121
:1029A000010B2BD06FEA0B002044010608D0012157
:1029B000013801EB810102064FEA4101F8D100E044
:1029C00001210298B9F1000FB0FBF1F04CF6CD41B6
:1029D000CCF6CC41A0FB01124FEAD20101EB810100
:1029E000A0EB4100CCD101994145C9DD0028C5D1FA
:1029F00008FB0570514680B22022C8E703B0BDE84D
:102A0000F08F00BFC1080122430718BF02EBD001BD
:102A10004843C0B2704700BF00F0FE010209012325
:102A200010F00E0F18BF03EB101201FB02F0C0B242
:102A3000704700BF2DE9F04F81B01C46082B28BF1E
:102A400008245CB3DDF8289040F27A0A40F27C0B4F
:102A50001546884607460026C2F2000AC2F2000B5D
:102A600009E000BFB8B24146FEF794F90136B4421E
:102A700007F1010712D02878B040000606D5B9F159
:102A8000000FEFD1BBF8000005E000BFB9F1000F67
:102A9000ECD1BAF80000FEF74FF9E7E701B0BDE866
:102AA000F08F00BF2DE9F04F85B00E468118934698
:102AB0004A1EF11801391C4692B28BB23146019080
:102AC000FEF7F0F9002C03946CD0DDE90E470021ED
:102AD000CDF808B00AE000BF013404990398013131
:102AE000DDF808B0814206F101065BD2BBF1000FB0
:102AF0000491F2D0DDF80480DA4609E0ABF1080B6E
:102B0000013408F108085FEA0B60AAF1080AE4D072
:102B10005FFA8BF0002508282ED3C1460AE000BFDB
:102B20001FFA89F0B1B2FEF735F90135082D09F128
:102B30000109E3D02078A840000607D5002FEFD187
:102B400040F27C00C2F2000006E000BF002FECD192
:102B500040F27A00C2F200000088FEF7EDF8E4E7E8
:102B60001FFA88F0B1B2FEF715F908F10108BAF1C1
:102B7000010A05F10105AFD02078A840000607D56D
:102B8000002FEDD140F27C00C2F2000006E000BF51
:102B9000002FEAD140F27A00C2F200000088FEF76E
:102BA000CBF8E2E705B0BDE8F08F00BF2DE9F043B8
:102BB00083B040F2AC08C2F20008B8F80070FF1A07
:102BC000874204DBB8F80270FF1A8F4202DA03B0C2
:102BD000BDE8F083DF08DDF828C001265D0718BFD7
:102BE00006EBD3075F4302375FFA87F947F2FB270B
:102BF00092F800E0C0F600077E1C002705E000BF49
:102C0000112F07F101074E440DD216F8014C7445FF
:102C1000F6D134785578AC42F2D1771C1A46CDE91A
:102C2000007CFFF73FFFB8F80000B8F80210013849
:102C3000013982B28BB20020002103B0BDE8F0431D
:102C4000FEF730B92DE9F04782B0824610781C4675
:102C5000202B28BF202468B3DDF8288015460F46B6
:102C60004FEA540956460BE0B0B2B9B22A462346A1
:102C7000CDF80080FFF79AFF023526442878C8B1C6
:102C800041B20029F0D4C2B20D2A09D1284610F869
:102C9000011F27440A2908BF054656460135EDE7BE
:102CA000B0B2B9B22346CDF80080FFF7F7FD4E442D
:102CB0000135E3E702B0BDE8F08700BF2DE9F0473A
:102CC00082B010461C4615460E4602F08BFA297853
:102CD000202C28BF2024D9B340F2AC02C2F200025B
:102CE0004FF6F8731288C0F2070303EAC000101A07
:102CF00000EBD070DDF828804FEA600A4FEA5409F3
:102D000057460BE0B8B2B1B22A462346CDF8008050
:102D1000FFF74CFF023527442978C9B148B2002893
:102D2000F0D4CAB20D2A09D1284610F8011F264452
:102D30000A2908BF054657460135EDE7B8B2B1B2DA
:102D40002346CDF80080FFF7A9FD4F440135E3E7A6
:102D500002B0BDE8F08700BF40F2AC02C2F2000250
:102D600012884008B2FBF0F248438A4238BF002084
:102D7000704700BF40F2AC02C2F200025288B2FBC0
:102D8000F0F248438A4238BF0020704780B547F2CE
:102D9000F321C0F6000111F8202001EB8000D102E0
:102DA00048F23C0C41EA8201C0F2070C40F2801E5E
:102DB00001EA0C01C4F2212E012241F80E204178D3
:102DC0008278CB0243EA810101EA0C010023C0783A
:102DD00041F80E30D10241EA820101EA0C0141F8CA
:102DE0000E30C10241EA800000EA0C0040F80E30CB
:102DF00080BD00BF10B547F2F321C0F6000111F805
:102E0000202001EB8000D10248F23C0E41EA820111
:102E1000C0F2070E40F2801301EA0E01C4F2212332
:102E20004FF0010C41F803C041788278CC0244EAAB
:102E3000810101EA0E01C07841F803C0D10241EAE4
:102E4000820101EA0E010022CA50C10241EA80005B
:102E500000EA0E00C25010BD10B547F2F321C0F6D3
:102E6000000111F8202001EB8000D10248F23C0E55
:102E700041EA8201C0F2070E40F2801301EA0E011E
:102E8000C4F221234FF0000C41F803C0417882784E
:102E9000CC0244EA810101EA0E010124C078CC5041
:102EA000D10241EA820101EA0E0141F803C0C102E8
:102EB00041EA800000EA0E0040F803C010BD00BFE8
:102EC00010B547F2F321C0F6000111F8202001EB04
:102ED0008000D10248F23C0E41EA8201C0F2070EA6
:102EE00040F2801301EA0E01C4F221234FF0000CDE
:102EF00041F803C041788278CC0244EA810101EABA
:102F00000E010124C078CC50D10241EA820101EACD
:102F10000E01CC50C10241EA800000EA0E0040F8E8
:102F200003C010BD10B547F2F321C0F6000111F83F
:102F3000202001EB8000D10248F23C0E41EA8201E0
:102F4000C0F2070E40F2801301EA0E01C4F2212301
:102F50004FF0000C41F803C041788278CC0244EA7B
:102F6000810101EA0E01C07841F803C0D10241EAB3
:102F7000820101EA0E010122CA50C10241EA800029
:102F800000EA0E0040F803C010BD00BF10B547F2C4
:102F9000F321C0F6000111F8202001EB8000D102DE
:102FA00048F23C0E41EA8201C0F2070E40F2801363
:102FB00001EA0E01C4F221234FF0000C41F803C0D6
:102FC00041788278CC0244EA810101EA0E01C0789E
:102FD00041F803C0D10241EA820101EA0E01012257
:102FE000CA50C10241EA800000EA0E00C25010BD82
:102FF00010B547F2F321C0F6000111F8202001EBD3
:103000008000D10248F23C0E41EA8201C0F2070E74
:1030100040F2801301EA0E01C4F221234FF0000CAC
:1030200041F803C041788278CC0244EA810101EA88
:103030000E01C07841F803C0D10241EA820101EAE1
:103040000E0141F803C0C10241EA800000EA0E000F
:103050000121C15010BD00BF10B547F2F321C0F6E9
:10306000000111F8202001EB8000D10248F23C0E53
:1030700041EA8201C0F2070E40F2801301EA0E011C
:10308000C4F221234FF0010C41F803C0417882784B
:10309000CC0244EA810101EA0E010024C078CC5040
:1030A000D10241EA820101EA0E01CC50C10241EA9B
:1030B000800000EA0E0040F803C010BD10B547F2D2
:1030C000F321C0F6000111F8202001EB8000D102AD
:1030D00048F23C0C41EA8201C0F2070C40F2801E2B
:1030E00001EA0C01C4F2212E002241F80E204178A1
:1030F0008378CC0244EA810101EA0C01C07841F8EE
:103100000E20D90241EA830101EA0C0141F80E20A8
:10311000C10241EA800000EA0C0040F80E2010BD18
:103120002DE9F04F81B04FF0000B4FF0FF314FF021
:10313000000A4FF0010900BF47F2F324C0F6000473
:1031400060184578009190F804802846102100F01E
:103150001BFC04EB8A00467887783046102100F08B
:1031600013FC3846102100F00FFC4046102100F0FF
:103170000BFC40F2801205F0F000C4F2212202EBB9
:10318000C02005F00F0140EA810506F0F00002EBD7
:10319000C02006F00F0140EA810607F0F00002EBC4
:1031A000C02007F00F0140EA810708F0F00002EBB1
:1031B000C02008F00F0140EA81040120C5F800900A
:1031C000C6F800B0C7F800B0C4F800B000F0D2FAFA
:1031D0000120C5F80090C6F80090C7F800B0C4F808
:1031E00000B000F0C7FA0120C5F800B0C6F80090A2
:1031F000C7F800B0C4F800B000F0BCFA0120C5F870
:1032000000B0C6F80090C7F80090C4F800B000F015
:10321000B1FA0120C5F800B0C6F80090C7F800B0B8
:10322000C4F800B000F0A6FA0120C5F80090C6F876
:103230000090C7F800B0C4F800B000F09BFA40F26C
:10324000D400C2F200000099C5F80090C6F800B0A2
:10325000C7F800B0C4F800B0C5F800B0C6F800B0B8
:10326000C7F800B0C4F800B040F82AB040F2CC0073
:10327000C2F2000040F82AB040F2DC00C2F20000C6
:1032800000F80AB00AF1010ABAF1020F01F10401D3
:103290007FF452AF01B0BDE8F08F00BF2DE9F043DD
:1032A00040F2D40E40F2CC04C2F2000EC2F200048E
:1032B0005EF8203054F8201040F2801640F2DC0C0A
:1032C000C4F221268B42C2F2000C35D147F2F32121
:1032D000C0F6000144F8203011F8203001EB8004E2
:1032E00003F0F00106EBC12103F00F0341EA830371
:1032F000002119606378A27803F0F00506EBC5257C
:1033000003F00F0345EA8303E478196002F0F00349
:1033100006EBC32302F00F0243EA8202116004F0BD
:10332000F00206EBC22204F00F0342EA83021160AE
:103330000CF80010BDE8F08303F0070143A757F82D
:10334000218047F2F32729A230A338A5C0F6000751
:1033500052F8212053F8213055F8219017F8201009
:1033600007EB800701F0F00506EBC52501F00F0122
:1033700045EA81010A607978BA78FD7801F0F007B2
:1033800006EBC72701F00F0147EA81010B6002F04D
:10339000F00106EBC12102F00F0241EA8201C1F8FF
:1033A000009005F0F00106EBC12105F00F0241EAA3
:1033B0008201C1F800805EF8202054F820108A4273
:1033C00005DA01324EF8202001220CF800205EF8C8
:1033D00020208A42D8BFBDE8F083511E4EF820104D
:1033E000FF210CF80010BDE8F08300BF01000000D1
:1033F00000000000000000000000000000000000CD
:1034000000000000010000000100000001000000B9
:1034100001000000010000000000000000000000AA
:10342000000000000000000000000000000000009C
:103430000000000001000000010000000100000089
:10344000000000000000000000000000000000007C
:10345000000000000000000000000000010000006B
:1034600001000000010000000000000010B540F263
:10347000D401C2F2000151F8201040F2CC02C2F295
:10348000000242F8201047F2F321C0F6000111F8C3
:10349000202001EB8000D10248F23C0C41EA82017D
:1034A000C0F2070C40F2801E01EA0C01C4F2212E8A
:1034B000002241F80E2041788378CC0244EA810151
:1034C00001EA0C01C07841F80E20D90241EA8301DB
:1034D00001EA0C0141F80E20C10241EA800000EA35
:1034E0000C0040F80E2010BD40F2D402C2F20002DF
:1034F00052F8202040F2CC030A44C2F20003002913
:1035000043F8202001DD012104E0B1F1FF3FC8BFF5
:103510007047FF2140F2DC02C2F2000211547047F2
:1035200040F2D401C2F2000151F8202040F2CC0157
:10353000C2F2000151F8203040F2DC019A42C2F29E
:10354000000101DA012202E09A4201DDFF220A5461
:103550000856704740F2CC0CC2F2000C40F2D40284
:103560005CF82030C2F2000252F8202019448A424E
:103570004CF8201001DA012102E0D8BF7047FF218A
:1035800040F2DC02C2F200021154704740F2D40251
:10359000C2F2000252F8202040F2CC03C2F2000333
:1035A0008A4243F8201001DA012102E0D8BF7047B7
:1035B000FF2140F2DC02C2F200021154704700BF4A
:1035C00010B5194600230446C4F2500310460022E9
:1035D00003F0CCF848F20003C4F21603002202F014
:1035E00075FE03F009F840F2D401C2F2000151F86F
:1035F000241040F2CC020144C2F20002002842F83A
:10360000241001DD012004E0B0F1FF3FC8BF10BD70
:10361000FF2040F2DC01C2F20001085510BD00BFDE
:1036200010B5194600230446C4F250031046002288
:1036300003F09CF848F20003C4F21603002202F0E3
:1036400045FE02F0D9FF40F2CC01C2F2000140F287
:10365000D40351F82420C2F2000353F8243010445C
:10366000834241F8240001DA012002E0D8BF10BDF6
:10367000FF2040F2DC01C2F20001085510BD00BF7E
:1036800010B5194600230446C4F250031046002228
:1036900003F06CF848F20003C4F21603002202F0B3
:1036A00015FE02F0A9FF40F2D401C2F2000151F868
:1036B000241040F2CC02C2F20002814242F82400FF
:1036C00001DA012002E0D8BF10BDFF2040F2DC018A
:1036D000C2F20001085510BDB0B50025ECB220467D
:1036E000FFF7DCFD002C05F10105F7D0B0BD00BFF0
:1036F00040F2D401C2F2000151F82000704700BF2F
:1037000040F2CC01C2F2000151F8200070470000E5
:103710004EF6FC50CEF20000016841F0807101606D
:1037200041F20000CEF2000000214160016841F04A
:1037300001010160704700BF41F2040140F204033F
:10374000CEF20001C2F200030A68D3F800C04DF6C1
:103750008363C4F21B33ACFB033C4FEA9C435843E6
:10376000203808BF704700BF0B689B1A8342FBD309
:10377000704700BF41F2040140F20403CEF20001A1
:10378000C2F200030A68D3F800C04DF68363C4F2A6
:103790001B33ACFB033C4FEA9C4358434FF47A7312
:1037A0005843203808BF70470B689B1A8342FBD3ED
:1037B000704700BF002808BF704740F20401C2F202
:1037C000000109684DF68362C4F21B32A1FB0212AC
:1037D000920C43F6095341F2040C5A436FF01F0355
:1037E000CEF2000C03EB8212DCF80030DCF80010A3
:1037F000C91A9142FAD301380106F5D17047000089
:10380000704700BF10B540F20801C2F200010A681B
:10381000044600BF10884006FCD5E1B2104600F017
:103820005FFF204610BD00BF02885206FCD500F0A5
:1038300057BF00BF40F20801C2F2000108607047A4
:1038400040F20800C2F2000000687047002A08BF7A
:10385000704770B514460D46064600BF297800BF74
:1038600030884006FCD53046013C00F039FF20048A
:1038700005F10105F2D1BDE870407047B0B50C46C6
:103880000978002908BFB0BD054600BF288840065A
:10389000FCD5C9B2284600F023FF14F8011F002907
:1038A000F4D1B0BD70B584B0044644F20040C4F217
:1038B000000084420D460DD043F60000C4F2010022
:1038C000844215D14FF48040012100F083FD0A2687
:1038D000092006E04FF40030012100F087FD0326A7
:1038E0000220182100F050F83046042100F04CF876
:1038F000002001904FF44021ADF80C0020460095C7
:10390000029100F0C3FD6946204600F017FE2046F4
:1039100040F22551012200F097FE2046012100F0DF
:1039200089FE04B070BD00BF10B543F60004C4F2B8
:103930000104204640F2255100F03EFF002808BF58
:1039400010BD204600F0D0FEC0B2BDE8104000F02F
:1039500021B900BF10B544F20044C4F2000420466F
:1039600040F2255100F028FF002808BF10BD204676
:10397000BDE8104000F0B8BE0009042101FA00F0D3
:10398000012100F027BD00BF70B582B00D4604468E
:103990000009042101FA00F00121012600F01AFDBE
:1039A00004F00F0006FA00F0ADF804000320142C18
:1039B0008DF807508DF806001CD806FA04F010F4B4
:1039C000C41F17D00120012100F004FD40F20020A7
:1039D000C0F23000012100F04FFB4FF4705000EABC
:1039E000841000F1804000F5843001A900F0A0FAB5
:1039F00002B070BDA4F10D0001280AD801200121F8
:103A000000F0E8FC40F20020C0F2300000F5007049
:103A1000E0E72D2C0AD10120012100F0DBFC012080
:103A200001F06AFA002001F003F90FE004F0FE0053
:103A3000302812D02E28D0D10120012100F0CAFC5C
:103A4000012001F059FA002000F04EFC002001F0A6
:103A500053FA02208DF80600BFE70120012100F093
:103A6000B9FC4FF40040B5E74FF47F4209024261D0
:103A700001617047FF2242610161704780B54FF4D8
:103A8000A06000F0B9FE00F0A3F9FFF741FEFCF7DB
:103A900069FC002080BD00BF4FF4A06000F0ACBE08
:103AA00030BF704772B6704762B6704780F30888BF
:103AB0007047704770B514461278835C8B420ED104
:103AC000551C2570EEB201F08DFB0146801BB0FA4B
:103AD00080F04009891B18BF2946217070BD002065
:103AE000207070BD704700BF002A08BF70470239C0
:103AF000023800BF30F8023F013A1BBA4FEA1343C5
:103B000021F8023FF6D17047002908BF7047B0B5D1
:103B100000F1020C4FF0000E04E000BF0EF1010EA8
:103B20008E4515D0A1EB0E03012BF7DB002062467A
:103B300032F9024CB2F900500130AC42C4BF1480DB
:103B400022F8025C84B2A34202F10202F0DCE5E753
:103B5000BDE8B040704700BFC2B110B50844431E75
:103B600000204FF4817C0021A0FB0CE001EBC1118F
:103B700000EB410113F8010F013AA0F130041EEBF4
:103B8000040041EBE4711404EED110BD00200021CB
:103B90007047000040F2A301C2F200010A7840F22F
:103BA000E003C2F200039854501C00F07F0008703C
:103BB000704700BFF0B589B004460DF1400EDDE955
:103BC0000E70DDF84CC09EE860408DE88E0004A9C0
:103BD00081E8614020462A21ADF820C0FFF724FE8D
:103BE000BDF8000045080BD000266F46F0B23844FF
:103BF00081782046FFF718FE0136F0B28542F5D8ED
:103C00002046232109B0BDE8F040FFF70DBE00BFFC
:103C1000B0B5232808D02A282BD140F27F00C2F269
:103C2000000001210170B0BD40F2800CC2F2000C16
:103C30009CF8001040F27F0EC2F2000E40F26812B3
:103C40009EF8003001EB0110C2F2000202EB4004CA
:103C50001C44002565704FF0FF3404EB430322F849
:103C60001030481C00F003008EF800508CF8000063
:103C7000B0BD40F27F01C2F200010A78531EDBB2F0
:103C80001F2B88BFB0BD40F28003C2F200031B7837
:103C900040F2681503EB0313C2F2000505EB430382
:103CA00013445870501C0870B0BD00BF2DE9F04798
:103CB00040F2A30040F2A20CC2F20000C2F2000CDB
:103CC00001789CF8002040F268198A42C2F200098B
:103CD00043D040F27F0A40F2800EC2F2000AC2F2E4
:103CE000000E9AF800709EF8000040F2E005C2F263
:103CF00000054FF0FF3818E000EB001609EB460412
:103D00003C4400236370FCB2013008EB440400F033
:103D1000030029F816408AF800308EF800000027CA
:103D2000013202F07F028A4215D0D6B2AE5D232E58
:103D3000E2D02A2E02D101270AE000BF7B1E1F2BF2
:103D4000EED800EB001309EB43033B4401375E70F0
:103D50008AF80070E4E78CF8002040F27E05C2F299
:103D60000005287800EB001039F81010C90708BFCB
:103D7000BDE8F08740F2F01109EB4000C2F200010B
:103D8000086000F023F8287800EB001139F81120C2
:103D9000013022F0010209EB410329F81120002132
:103DA00000F00300C3F80210C3F80610C3F80A10AD
:103DB000C3F80E10C3F81210C3F81610C3F81A1087
:103DC000C3F81E102870BDE8F08700BF70470000E0
:103DD00040F20400C2F20000006844F6D351C1F280
:103DE0006201A0FB01014FF0FF3000EB91110020B8
:103DF000B0EB116F18BF70474EF21002CEF2000206
:103E000051604EF62351CEF20001F0230B7090600A
:103E100007201060704700BF40F26410C2F200003B
:103E20000068704740F26411C2F20001086847F66A
:103E3000D5020130C2F2E962424341F26E234FEAF9
:103E4000B202C0F283039A42086005D840F2DE0154
:103E5000C2F2000101220A7044F6D351C1F262019C
:103E6000A0FB011291094FF47A7201FB12010129A2
:103E700005D051B940F2A101C2F2000103E040F2C5
:103E8000DF01C2F2000101220A704AF6AB21CAF634
:103E9000AA214843B0F1553F88BF7047FFF71CBCCB
:103EA0000948804709480047FEE7FEE7FEE7FEE7CE
:103EB000FEE7FEE7FEE7FEE7FEE7FEE7044805490A
:103EC000054A064B70470000F5010008ED000008A8
:103ED000F8010020F8070020F8030020F803002074
:103EE000A0F18041A1F58431800540EA91200628A7
:103EF00088BF704710B546F6B841C0F6000151F8CA
:103F000020400121204600F07DFA20460021BDE836
:103F1000104000F077BA00BF80B50120012100F009
:103F200071FA01200021BDE8804000F06BBA00BFAB
:103F3000CA7802F00F0CD30644BF8B784CEA030C0E
:103F40002DE9F04709880B0625D082465AF8144B14
:103F500000F1100E00254FF001094FF00F08002767
:103F600006E000BF1E600137082F05F1040511D0DF
:103F700009FA07F60E42F6D008FA05F324EA03031D
:103F80000CFA05F41C43282A5346EBD0482AEAD100
:103F90007346E7E70460B1F5807F38BFBDE8F0877E
:103FA000436800F1100E00F1140900254FF4807AE7
:103FB0004FF00F08002705E034600137082F05F1A6
:103FC000040512D00AFA07F404EA0106A642F4D165
:103FD00008FA05F6B3430CFA05F63343282A4E4691
:103FE000EAD0482AE9D17646E6E74360BDE8F087A3
:103FF0004FF6FF71C0F202410160704780680840CF
:1040000018BF0120704700BF806880B2704700BFB2
:10401000C068084018BF0120704700BFC06880B268
:10402000704700BF01617047416170471023002A4B
:1040300008BF1423C1507047C160704701F580323A
:1040400082618161826181698069704740F2000C00
:10405000C4F2010CDCF800304FF680721A4041EADD
:1040600000101043CCF80000704700BF1C21C4F2C0
:1040700020210860704700BFB0B540F2040CC4F2C4
:10408000010C0CF118031A46B0F1FF3FC4BF042223
:10409000C4F20102146800F44012B2F5401F1FFA86
:1040A00080FE08D1DCF8005024F0706225F07064C6
:1040B000CCF8004011E0C20206D46FF00F0202EA11
:1040C00050420EFA02F204E0C0F30342032505FA5F
:1040D00002F224EA020242F070626FF00F0404EA76
:1040E000504400290EFA04F518BF2A43B0F1FF3FEF
:1040F000C8BF63461A60B0BD10B50C22082402EA9E
:10410000810201F0FC01C4F201044FF00F0C51F8E0
:1041100004E00CFA02F32EEA03030B510B59904012
:104120001843085110BD00BFDC21C4F220210860F3
:104130007047000041F20000C4F202000168002252
:1041400041F0010101604168CFF6FF02114041607A
:1041500001684FF6FF72CFF6F66211400160016808
:1041600021F480210160416821F4FE0141604FF497
:104170001F018160704700BF41F20001C4F20201DB
:104180000A68B0F5803F22F480320A600A6822F49F
:1041900080220A6005D0B0F5802F18BF70474FF419
:1041A000A0200A6810430860704700BF81B041F248
:1041B0000000C4F202000021009100BF0168009AD3
:1041C00001320092009AB2F5A06F02D011F40031D2
:1041D000F4D00068C0F3404001B07047420941F29A
:1041E0000001012AC4F2020103D0022A14BF2431C3
:1041F0002031096800F01F0021FA00F000F00100F2
:10420000704700BF41F20001C4F202010A6822F0C7
:10421000F80242EAC0000860704700BF0021C4F203
:1042200042210860704700BF41F20402C4F202025A
:104230001368084323F47C1318431060704700BFD1
:104240006021C4F242210860704700BF41F20401BE
:10425000C4F202010A6822F00302104308607047AA
:1042600041F20400C4F20200006800F00C00704744
:1042700041F20401C4F202010A6822F0F002104384
:104280000860704741F20401C4F202010A6822F496
:10429000E06210430860704741F20401C4F2020179
:1042A0000A6822F4605242EAC0000860704700BF0A
:1042B000002941F20901C4F202010A780CBF22EA86
:1042C0000000104308707047D821C4F242210860F2
:1042D000704700BF41F20401C4F202010A6822F4EF
:1042E000404210430860704741F22001C4F20201CD
:1042F000002201280A700A7003D0042818BF7047F2
:1043000005200870704700BF40F28041C4F242218E
:104310000860704741F22001C4F202010A681043AC
:104320000860704740F23C41C4F242210860704787
:1043300010B541F20404C4F20204226802F00C0237
:10434000082A41F20022C0F27A0212D12368D4F87E
:1043500000C0C3F3834E5FEACC330EF1020C02D5EA
:1043600023689B0303D540F60012C0F23D020CFB0C
:1043700002F20260226846F6E843C2F30312C0F676
:1043800000039A5C0168D14041602268C2F30222B6
:104390009A5C21FA02F282602268C2F3C2229A5C1D
:1043A00046F6D443D140C1602268C0F60003C2F390
:1043B00081329A5CB1FBF2F1016110BD002941F23A
:1043C0001401C4F202010A680CBF22EA0000104383
:1043D00008607047002941F21801C4F202010A681E
:1043E0000CBF22EA0000104308607047002941F228
:1043F0001C01C4F202010A680CBF22EA000010434B
:1044000008607047002941F20C01C4F202010A68F9
:104410000CBF22EA0000104308607047002941F2F7
:104420001001C4F202010A680CBF22EA0000104326
:104430000860704740F24041C4F242210860704772
:104440004C21C4F242210860704700BF41F20701CD
:10445000C4F202010870704741F22400C4F2020065
:10446000016841F080710160704700BF41F20801AE
:10447000C4F202010968084018BF0120704700BF5C
:1044800041F20A01C4F202010870704780B544F697
:10449000FF31C4F2000188421EDD44F60041C4F23F
:1044A000000188422CD045F20001C4F2000188428C
:1044B0002ED043F60001C4F20101884218BF80BD2E
:1044C0004FF480400121FFF79DFF4FF48040002111
:1044D000BDE88040FFF796BF44F20041C4F20001FE
:1044E00088421DD044F60001C4F20001884223D165
:1044F0004FF480200121FFF791FF4FF4802016E058
:104500004FF400200121FFF789FF4FF400200EE057
:104510004FF480100121FFF781FF4FF4801006E077
:104520004FF400300121FFF779FF4FF400300021F4
:10453000BDE88040FFF772BF80BD00BF70B586B098
:104540000446008A0D46C98820F440500843208262
:10455000A0894EF6F3110840A9882A896B8908437F
:1045600010431843A081A08AA98920F44070084311
:1045700001AEA0823046FFF7DBFE43F6000106F1F4
:104580000800C4F201018C4208BF06F10C0000686B
:104590001922B4F90C1050432A680123B1F1FF3FEE
:1045A000C8BF022302FA03F1B0FBF1F048F21F5139
:1045B000C5F2EB11A0FB01235A096FF0630302FB64
:1045C0000300B4F90C300326B3F1FF3FC8BF042643
:1045D00000FA06F000F13200A0FB01014FF00700E5
:1045E000C8BF0F2000EA511040EA0210208106B037
:1045F00070BD00BF4FF4165100224FF4402380E8F5
:104600000E008281704700BF80B5028A0B8822F4B9
:10461000706C4A88B1F804E043EA0C03C9881A4375
:1046200042EA0E021143018280BD00BF00214160B9
:10463000016070478289002918BF012122F40052CD
:1046400042EA413181817047C1F3421301F01F0CEE
:104650001421022B08BF1021012B4FF0010308BFCA
:104660000C21002A03FA0CF243580CBF23EA020281
:104670001A434250704700BF002A828A0CBF22EAC8
:104680000101114381827047028A22F00F020282E7
:10469000028A114301827047828922F4006282817A
:1046A00082891143818170478289002918BF0121C5
:1046B00022F0020242EA410181817047028A22F01F
:1046C00020020282028A114301827047028A002975
:1046D00018BF012122F4804242EA813101827047F1
:1046E0006FF35F218180704780886FF35F20704790
:1046F000818941F001018181704700BF028BD2B2F4
:104700000283028B42EA012101837047028B22F06F
:10471000FF020283028B114301837047828A0029C2
:1047200018BF012122F0200242EA41118182704724
:10473000828A002918BF012122F0100242EA0111E9
:1047400081827047828A002918BF012122F0080265
:1047500042EAC101818270478289002918BF012184
:104760006FF3DF3242EAC13181817047828A0029CA
:1047700018BF012122F4006242EAC1218182704700
:10478000828A22F004028282828A114381827047E7
:10479000828A002918BF012122F0020242EA410167
:1047A000818270470088084018BF0120704700BF11
:1047B000C9430180704700BFC1F34212022A06D0EC
:1047C000012A14BF00F1140200F10C0201E000F113
:1047D00010021288008801F01F03090ADA40C8405D
:1047E000104000F001007047090A012202FA01F1AD
:1047F000C94301807047000040F080604EF60C51C4
:1048000040F0FD70CEF200010860704710B5C1782D
:1048100000294EF20011CEF200011AD04EF60C52D1
:10482000CEF200021268072323EA12220F23C2F1FC
:10483000040C23FA02F24378847890F800E003FA3B
:104840000CF322401A43120101EB0E0383F80023FC
:1048500000E080310078012300F01F0203FA02F229
:10486000C0F3421041F8202010BD00BF4FF6807207
:10487000C1F6FF72114008434EF60851CEF2000116
:104880000860704700294EF61051CEF200010A6808
:104890000CBF22EA00001043086070474EF210017E
:1048A000CEF200010A68042822F0040208BF043294
:1048B0000A60704710B542F20041C4F2010188421B
:1048C0000FD043F60041C4F2010188420CD042F6F9
:1048D0000001C4F20101884218BF10BD4FF480648A
:1048E00004E04FF4007401E04FF40044204601213D
:1048F000FFF788FD20460021BDE81040FFF782BD8C
:1049000080B542684FF6FF63CFF6F07302EA030CFE
:104910000B680A7943EA0C0343EA02224260826888
:104920004FF2FD73CFF6F1731A40D1E902C391F84B
:1049300005E01A4342EA0C0242EA4E028260C26A71
:10494000097C22F470020139C9B242EA0151C16204
:1049500080BD00BF002101608180C0E902110121FA
:10496000017470478268002922F0010218BF0132E9
:10497000826070478268002922F4807218BF02F5B5
:1049800080728260704700BFC9B2002A42680CBFC3
:1049900022EA010111434160704700BF816841F084
:1049A00008018160704700BF8068C0F3C000704795
:1049B000816841F004018160704700BF8068C0F3E6
:1049C000800070478268002922F4A00218BF02F517
:1049D000A0028260704700BF8068C0F380507047BB
:1049E00042684EF20003CFF6FF7322F4604203EBFD
:1049F00041311143416070474268002922F400624E
:104A000018BF02F500624260704700BFB0B501EB0D
:104A1000410C4FF0100E092988BFACF11E0C88BF65
:104A20004FF00C0E50F80E40072505FA0CF5AC437C
:104A300003FA0CF3234340F80E30062A02EB8203FC
:104A400003D834306FF0040207E00C2A87BF2C3003
:104A50006FF0400230306FF022021A4403681F25C5
:104A60009540AB43914019430160B0BD8268002975
:104A700022F4801218BF02F580128260704700BFD6
:104A8000C06C80B2704700BF42F24C40C4F20100DB
:104A9000006870474268002922F4806218BF02F55E
:104AA00080624260704700BF4268002922F4805251
:104AB00018BF02F580524260704700BF826822F43E
:104AC000E0421143816070478268002922F400426D
:104AD00018BF02F500428260704700BF826800295B
:104AE00022F4021218BF02F502128260704700BF62
:104AF0008068C0F340507047B0B501EB410C4FF0F7
:104B0000100E092988BFACF11E0C88BF4FF00C0EA7
:104B100050F80E40072505FA0CF5AC4303FA0CF3E8
:104B2000234340F80E30836BFC2565EA13552A4475
:104B30000332D2B202EB82021F259540AB43914073
:104B400019438163B0BD00BF826B0023CFF6F073C1
:104B500022F4401203EB015111438163704700BFFF
:104B600081B00023009300900098084400900098C2
:104B7000026001B0704700BF81B000220092009037
:104B800000980844283000900098006880B201B076
:104B9000704700BF42684FF6FF53CFF63F731A408D
:104BA00011434160704700BF41628262704700BF9D
:104BB000426822F01F0211434160704742F20841EF
:104BC000C4F201010A68002822F4000218BF02F5AD
:104BD00000020A60704700BF0068084018BF01204B
:104BE000704700BFC9430160704700BF426800685A
:104BF0000A4010EA1120D2B218BF0120002A18BFC3
:104C000001221040704700BF6FEA11210160704718
:104C100080B50120FFF70EFC0020BDE88040FFF7C3
:104C200009BC00BF48F20461C4F20D21086070475E
:104C300048F20061C4F20D210860704748F28861B3
:104C4000C4F20D210860704746F62C41C4F2000101
:104C50000A8822F4607210430880704746F62C419F
:104C6000C4F200010A8822F07F02104308807047D6
:104C700081B00022009246F60042C4F20002009287
:104C8000009A104400900098016001B0704700BF86
:104C900081B00021009146F60041C4F2000100916C
:104CA0000099084400900098008801B0704700BF48
:104CB00048F2A060C4F20D200068C0B2704700BF87
:104CC00046F63440C4F20000018841F00101018041
:104CD000704700BF48F2A460C4F20D200068C0B263
:104CE000704700BF46F63440C4F20000018841F02E
:104CF000020101807047000002684FF6FE731A40FF
:104D00007F230421C4F20203C4F2020102600022E4
:104D10009842026042608260C26016DC4322C4F2A4
:104D2000020290422CDC0822C4F20202904251D0CE
:104D30001C22C4F2020290424ED03022C4F202027F
:104D400090425ED14FF4706058E040F22F42C4F2BE
:104D50000202904226DC8022C4F2020290423DD040
:104D600040F20842C4F2020290423AD040F21C42A1
:104D7000C4F20202904244D101F58061F0203DE08E
:104D80004422C4F20202904236D05822C4F20202F7
:104D900090421CD06C22C4F20202904231D14FF4F6
:104DA00070002BE040F23042C4F2020290421CD06C
:104DB00040F24442C4F2020290421BD040F25842F8
:104DC000C4F20202904218BF704701F580614FF4AF
:104DD000702013E00F2011E0F0200FE04FF0706022
:104DE0000CE001F580610F2008E001F580614FF4CF
:104DF000706003E001F580614FF470400A68104371
:104E0000086070472DE9F047026847F6F073D1E972
:104E1000026A9A4301F11007B0CF01F11C0E324330
:104E2000D1E900899EE80A501A4322432A433A43B3
:104E3000114341EA0C0141EA0E010160C0F804A0EF
:104E4000C0F80880C0F80C90BDE8F08780B52C2130
:104E500000F0E7F980BD00BF02684FF6FE7C42F02B
:104E60000103002908BF02EA0C030360704700BF7A
:104E7000002A02680CBF22EA010111430160704759
:104E800041607047406880B2704700BF0022010F48
:104E9000C4F2020261F38A221168084018BF01209F
:104EA000704700BF0422010FC4F2020261F38A229C
:104EB000106070470022010FC4F2020261F38A22DF
:104EC0001168084018BF0120704700BF0422010F7D
:104ED000C4F2020261F38A221060704780B54FF07D
:104EE00080500121FFF79AFA4FF080500021BDE871
:104EF0008040FFF793BA00BF2021C4F20E21086062
:104F0000704700BF1021C4F20E210860704700BF37
:104F100047F20001C4F200010A6822F0E0021043E7
:104F200008607047A021C4F20E210860704700BFDE
:104F300047F2000CC4F2000CDCF800304EF61052C0
:104F400023F003031843CEF20002CCF800001068EF
:104F5000012940F00400106014BF20BF30BF10686A
:104F600020F004001060704747F20000C4F2000017
:104F7000016841F004010160016841F00201016033
:104F80004EF61050CEF20000016841F004010160BD
:104F900030BF704747F20401C4F2000109680840BD
:104FA00018BF0120704700BF47F20001C4F20001A2
:104FB0000A6842EA80000860704700000FB41CB520
:104FC000074B06AA7B4469460090059800F0BFFB9A
:104FD0000020694600F0CEFB1CBC5DF814FB00000D
:104FE000AD07000070B5044685690068C10601D5AB
:104FF000302600E02026C00707D070BDD4E901218B
:1050000030469047206A401C20626D1EF6D570BD68
:1050100070B5044685690078C00707D170BDD4E932
:10502000012120209047206A401C20626D1EF6D589
:1050300070BD00002DE9F041064600241068752976
:10504000314616A510D0AFF30080002802DA4042A6
:1050500013A507E031688A0701D512A502E04907C8
:1050600004D511A5012401E0AFF3008000210A223C
:1050700006F1240709E0B0FBF2FCB0FBF2F302FBFF
:105080001C00303078541846491C0028F3D12346C0
:105090002A463046BDE8F04100F0EDB800000000BF
:1050A0002D0000002B000000200000002DE9F05F23
:1050B000894604464FF0000ADFF824B1FB44C0F8EB
:1050C00020A02046E168884700287DD0252806D00A
:1050D000D4E901219047206A401C2062F1E70025B5
:1050E0005F462046E16888472028064607DB312EC8
:1050F00005D2B81910F8200C08B10543F1E7A8074C
:1051000001D525F00405C4F81CA00027C4F818A098
:105110002A2E09D0304601F07DF838B304EB870819
:10512000303EC8F8186019E059F8041B204604EB1B
:1051300087029161E1688847012F064618D1E0692E
:10514000002820DA25F020051DE0D8F8180000EB33
:10515000800006EB40003038C8F818002046E168AF
:105160008847064601F056F80028EED1012F0AD0F4
:105170002E2E08D12046E16888477F1C0646022F64
:1051800045F02005C4DBA069002803DA404245F061
:105190000105A061E80701D025F01005A6B1A6F130
:1051A0004100192802D8203645F400654A463146A8
:1051B000204625604D46FAF7E9FF60B1012807D087
:1051C000ED1D25F0070000E007E000F1080978E791
:1051D00005F1040975E730467AE7206ABDE8F09FDB
:1051E000501B000010B5431C02E010F8011B71B108
:1051F0008107FAD14FF0013202C88C1A8C4314EAAD
:10520000C211F9D0C01A0A0603D0C01E10BDC01AC0
:1052100010BD0A0401D0801E10BD0902FCD0401E42
:1052200010BD4FF0000200B5134694469646203953
:1052300022BFA0E80C50A0E80C50B1F12001BFF44F
:10524000F7AF090728BFA0E80C5048BF0CC05DF8B5
:1052500004EB890028BF40F8042B08BF704748BF03
:1052600020F8022B11F0804F18BF00F8012B704777
:105270007047704770472DE9F0470D4699469246B2
:10528000044600F124080168880604D5E06921F08D
:105290001001216000E00120A84201DD471B00E071
:1052A0000027A1697A1902EB0900081AA061207889
:1052B000C00602D42046FFF795FE002608E0D4E998
:1052C00001211AF806009047206A401C761C2062D3
:1052D0004E45F4DB2078C0060AD52046FFF782FE53
:1052E00006E0D4E9012130209047206A401C20626A
:1052F000381EA7F10107F4DC07E0D4E9012118F812
:1053000005009047206A401C2062281EA5F1010577
:10531000F3DC2046FFF77CFE2078000602D5022051
:10532000BDE8F0870120FBE72DE9FF4F0C461E4644
:105330004FF0FF378BB0D2E90001DDF860800A90B2
:105340008A46C1F30A5505B93D46002108464FF08B
:105350000000BAF1000F00F4400005DA00EB800015
:105360004FF4400101EA50004FEA9059B9F1010FA2
:1053700000DDB9460A9850EA4A000ED044F61050B3
:10538000A5F2FF3545432F14B8F1000F1ED075422A
:10539000291E1EDDC9F100021CE0B8F1010F4FF01B
:1053A000000001D0302103E0F24305E02154401C0D
:1053B000B042FBDB30460022002121540B99C1F89A
:1053C0000880C1E900200FB0BDE8F08FBD1B6D1C47
:1053D000DEE74A4600DA694206A800F05BFA06AB4F
:1053E00093E8070003AB83E8070050460A9900F0F2
:1053F00035FB8DE80700A0F500501F38009003989A
:10540000002D0ADD42F21F014A460844002303A989
:105410000390684600F09EFD09E0A0F500504A4662
:105420001F38002303A90390684600F0A8FD8DE80B
:1054300007000004000C03D04FF0FF30410800E0EB
:105440001046B8F1000F03D00022009215461EE06E
:10545000751E05D400F098F9303262556D1EF9D5ED
:10546000B3460122084302D000227F1C04E02078CA
:10547000302801D100227F1E002A099784D01DE028
:10548000112D07DA00F080F9303262556D1C50EAB8
:105490000102F5D1084302D00098C8B10EE0002106
:1054A000681E05E0235C625C63542254401E491C64
:1054B0008142F7DBAB46A81B401E0990002004F890
:1054C0000B000B98099AC0F80880C0E9002B7AE716
:1054D00011264FF0000857E72DE9F04F88460446A3
:1054E000D21D22F0070191B0D1E90001CDE90A01F6
:1054F00000F07CFE02460B98C00F01D02D2007E083
:105500002068810701D52B2002E0202101EAC0009C
:10551000032A099001D0072A05DB034641462046AD
:1055200000F078F90BE12078800601D5E06900E011
:105530000620B8F1650F814606D0B8F1660F18D085
:10554000B8F1670F70D131E00020B9F1110F009070
:1055500001DB112301E009F101030AAA01A90CA84A
:10556000FFF7E2FEDDE90C70002609F10105834634
:1055700047E001204B4600904FF000470AAA01A9DE
:105580000CA8FFF7D1FEDDE90DB00C995D460026B1
:1055900010B909F101000D18B9EB050003D4C0F1F1
:1055A000FF3609F10105A5EB09002BE0B9F1010F68
:1055B00001DA4FF001090020B9F1110F00904846BF
:1055C00001DD112300E003460AAA01A90CA8FFF798
:1055D000ABFEDDE90C704D460026834620780007BF
:1055E0000AD4AB4500DA5D4601A8012D04DD41195E
:1055F00011F8011C302907D04F4502DA17F1040FCA
:1056000004DA012082460FE06D1EEEE7002F02DC77
:10561000ED1B3E4403E0781CA84200DD7D1CB81B56
:1056200000F1010A4FF000472078000703D4AA4593
:1056300001DB4FF0FF3A0021B7F1004F0DF14308B5
:105640008DF8431024D002202B23002F01DA7F4253
:105650002D230A21021EA0F1010000DC5FB197FB9F
:10566000F1FC97FBF1F201FB1C7C17460CF1300CAE
:1056700008F801CDEEE7A8F10100037021880905C3
:1056800001D5452100E06521A0F1010800F8011CC9
:1056900009980FA9A1EB0807FF1D00B101204119CE
:1056A00001EBEA70A1693844081A401EA061207815
:1056B000C00602D42046FFF795FC099828B1D4E92A
:1056C00001219047206A401C20622078C00622D524
:1056D0002046FFF787FC1EE0002E04DBB34502DD09
:1056E00001A8805D00E03020D4E901219047206AC4
:1056F000401C2062761CAAF101005FEA000A0AD170
:1057000000F03EF8C0680168405CD4E90121904790
:10571000206A401C2062281EA5F10105DCDC07E0A0
:10572000D4E9012118F8010B9047206A401C20623F
:10573000381EA7F10107F3DC2046FFF769FC0320C0
:1057400011B041E601694A1C02610878704700B552
:105750008FB0CDE901310021059105497944CDE9AA
:10576000031011466846FFF7A1FC0FB000BD000012
:10577000E5FFFFFF0A6802F8010B0A6070470000AE
:10578000004870473000002030B5B0F10A0271F1D6
:1057900000034FEA900E4EEA817EB0EB0E0061EB03
:1057A00091014FEA101E4EEA017E10EB0E0041EB14
:1057B00011114FEA102E4EEA016E10EB0E0041EB74
:1057C00011214FEA104E4EEA014E10EB0E0041EB54
:1057D0001141401841F100014FEAD00040EA417008
:1057E0004FEAD1014FEA810444EA907410EB80053E
:1057F00044EB01046D1944EB0404521BA3414FF028
:10580000000348BF0A3200D530BD401C41F1000101
:1058100030BD00002DE9F0411F4604460326016813
:10582000072A01F4006004DB08B116A505E016A5FF
:1058300003E008B115A500E015A521F010002060D7
:10584000A069C01EA0610FB1401EA0612046FFF7F5
:10585000C9FB4FB1D4E9012138469047206A401C6A
:105860002062C01C206206E0206AFAE7D4E9012128
:1058700015F8010B9047761EF8D22046FFF7C8FBBB
:10588000BDE8F0814E414E006E616E00494E46000B
:10589000696E66002DE9F047814616468AB03548A4
:1058A00078440DC88DE80D0032487844801C03AC64
:1058B0000DC884E80D0041F69B300844372190FB69
:1058C000F1F290FBF1F5A5F1800501FB12041B3C00
:1058D00002D56442012000E00020DFF898A0804655
:1058E0000027FA44AAF1BE0A0EE0E0070AD03246C9
:1058F000684607EB470101230AEB810100F03FFBFB
:105900008DE8070064107F1C002CEED1194F7F44F6
:10591000AE3F19E0E80715D007EB04100DF1180AA7
:1059200090E80E008AE80E00C068F04201D1981994
:1059300008903246012306A903A800F020FB03AB20
:1059400083E807006D10641C002DE3D14FF00103C4
:1059500032466946B8F1000F03A802D000F0FAFA07
:1059600001E000F00CFBC9E90001C9F808200AB009
:10597000BDE8F087FC1300000048704710000020CD
:105980007546FFF7F9FFAE4605006946534620F01D
:105990000700854618B020B5FEF790FABDE8204014
:1059A0004FF000064FF000074FF000084FF0000BDB
:1059B000AC46ACE8C009ACE8C009ACE8C009ACE84A
:1059C000C00921F007018D46704710B50446AFF3BA
:1059D00000802046BDE81040FAF7F5BB4FF0013CCF
:1059E00050F8042B51F8043B9A4221D1A2EB0C034E
:1059F000934313EACC1317D150F8042B51F8043B0E
:105A00009A4215D1A2EB0C03934313EACC130BD1AA
:105A100050F8042B51F8043B9A4209D1A2EB0C0335
:105A2000934313EACC13DBD04FF00000704700BF64
:105A3000D01A01BAB1FA81F101F0180122FA01F08D
:105A4000CB40DBB2C0B2C01AC1F120012CFA01F385
:105A5000D11A914311EAC311E6D170475FEA400CB5
:105A600008BF91F0000F4FEA8C234FEAC12243EAAE
:105A700051514FEA1C5018BF00F5F0404FEA30007A
:105A800018BF41F000415FEA6C5C00F02980BCF176
:105A9000FF3F08BF40F080407047130C06BF120460
:105AA0004FF0100C4FF0000C130E04BF12020CF15B
:105AB000080C130F04BF12010CF1040C930F04BF68
:105AC00092000CF1020CD30F04BF52000CF1010C38
:105AD00011464FF00002A0F11F00A0EB0C00704730
